{
  "contractName": "auction",
  "abi": [
    {
      "inputs": [],
      "payable": false,
      "stateMutability": "nonpayable",
      "type": "constructor"
    },
    {
      "constant": true,
      "inputs": [
        {
          "internalType": "uint256",
          "name": "",
          "type": "uint256"
        },
        {
          "internalType": "uint256",
          "name": "",
          "type": "uint256"
        }
      ],
      "name": "former_owners",
      "outputs": [
        {
          "internalType": "address",
          "name": "",
          "type": "address"
        }
      ],
      "payable": false,
      "stateMutability": "view",
      "type": "function"
    },
    {
      "constant": true,
      "inputs": [
        {
          "internalType": "uint256",
          "name": "",
          "type": "uint256"
        }
      ],
      "name": "formerown_len",
      "outputs": [
        {
          "internalType": "uint256",
          "name": "",
          "type": "uint256"
        }
      ],
      "payable": false,
      "stateMutability": "view",
      "type": "function"
    },
    {
      "constant": true,
      "inputs": [
        {
          "internalType": "address",
          "name": "",
          "type": "address"
        },
        {
          "internalType": "uint256",
          "name": "",
          "type": "uint256"
        }
      ],
      "name": "if_creator",
      "outputs": [
        {
          "internalType": "uint256",
          "name": "unique_id",
          "type": "uint256"
        },
        {
          "internalType": "bool",
          "name": "if_",
          "type": "bool"
        }
      ],
      "payable": false,
      "stateMutability": "view",
      "type": "function"
    },
    {
      "constant": true,
      "inputs": [
        {
          "internalType": "address",
          "name": "",
          "type": "address"
        }
      ],
      "name": "if_creatorlen",
      "outputs": [
        {
          "internalType": "uint256",
          "name": "",
          "type": "uint256"
        }
      ],
      "payable": false,
      "stateMutability": "view",
      "type": "function"
    },
    {
      "constant": true,
      "inputs": [],
      "name": "maxn",
      "outputs": [
        {
          "internalType": "uint256",
          "name": "",
          "type": "uint256"
        }
      ],
      "payable": false,
      "stateMutability": "view",
      "type": "function"
    },
    {
      "constant": true,
      "inputs": [
        {
          "internalType": "uint256",
          "name": "",
          "type": "uint256"
        }
      ],
      "name": "nfts",
      "outputs": [
        {
          "internalType": "address",
          "name": "creator",
          "type": "address"
        },
        {
          "internalType": "address",
          "name": "owner",
          "type": "address"
        },
        {
          "internalType": "uint256",
          "name": "unique_id",
          "type": "uint256"
        }
      ],
      "payable": false,
      "stateMutability": "view",
      "type": "function"
    },
    {
      "constant": true,
      "inputs": [
        {
          "internalType": "address",
          "name": "",
          "type": "address"
        },
        {
          "internalType": "uint256",
          "name": "",
          "type": "uint256"
        }
      ],
      "name": "ownership",
      "outputs": [
        {
          "internalType": "address",
          "name": "creator",
          "type": "address"
        },
        {
          "internalType": "address",
          "name": "owner",
          "type": "address"
        },
        {
          "internalType": "uint256",
          "name": "unique_id",
          "type": "uint256"
        }
      ],
      "payable": false,
      "stateMutability": "view",
      "type": "function"
    },
    {
      "constant": true,
      "inputs": [
        {
          "internalType": "address",
          "name": "",
          "type": "address"
        }
      ],
      "name": "ownlen",
      "outputs": [
        {
          "internalType": "uint256",
          "name": "",
          "type": "uint256"
        }
      ],
      "payable": false,
      "stateMutability": "view",
      "type": "function"
    },
    {
      "constant": true,
      "inputs": [
        {
          "internalType": "uint256",
          "name": "",
          "type": "uint256"
        }
      ],
      "name": "products",
      "outputs": [
        {
          "internalType": "address payable",
          "name": "launcher",
          "type": "address"
        },
        {
          "internalType": "uint256",
          "name": "unique_id",
          "type": "uint256"
        },
        {
          "internalType": "uint256",
          "name": "ddl",
          "type": "uint256"
        },
        {
          "internalType": "uint256",
          "name": "bottom",
          "type": "uint256"
        },
        {
          "internalType": "uint256",
          "name": "highest_now",
          "type": "uint256"
        },
        {
          "internalType": "address",
          "name": "highest_bidder",
          "type": "address"
        },
        {
          "internalType": "uint256",
          "name": "node",
          "type": "uint256"
        },
        {
          "internalType": "bool",
          "name": "finished",
          "type": "bool"
        }
      ],
      "payable": false,
      "stateMutability": "view",
      "type": "function"
    },
    {
      "constant": true,
      "inputs": [],
      "name": "productsNum",
      "outputs": [
        {
          "internalType": "uint256",
          "name": "",
          "type": "uint256"
        }
      ],
      "payable": false,
      "stateMutability": "view",
      "type": "function"
    },
    {
      "constant": true,
      "inputs": [
        {
          "internalType": "address",
          "name": "",
          "type": "address"
        },
        {
          "internalType": "uint256",
          "name": "",
          "type": "uint256"
        }
      ],
      "name": "userLaunchs",
      "outputs": [
        {
          "internalType": "uint256",
          "name": "",
          "type": "uint256"
        }
      ],
      "payable": false,
      "stateMutability": "view",
      "type": "function"
    },
    {
      "constant": true,
      "inputs": [
        {
          "internalType": "address",
          "name": "",
          "type": "address"
        }
      ],
      "name": "userLaunchsLen",
      "outputs": [
        {
          "internalType": "uint256",
          "name": "",
          "type": "uint256"
        }
      ],
      "payable": false,
      "stateMutability": "view",
      "type": "function"
    },
    {
      "constant": true,
      "inputs": [
        {
          "internalType": "address",
          "name": "",
          "type": "address"
        },
        {
          "internalType": "uint256",
          "name": "",
          "type": "uint256"
        }
      ],
      "name": "userbids",
      "outputs": [
        {
          "internalType": "uint256",
          "name": "",
          "type": "uint256"
        }
      ],
      "payable": false,
      "stateMutability": "view",
      "type": "function"
    },
    {
      "constant": true,
      "inputs": [
        {
          "internalType": "address",
          "name": "",
          "type": "address"
        }
      ],
      "name": "userbidsLen",
      "outputs": [
        {
          "internalType": "uint256",
          "name": "",
          "type": "uint256"
        }
      ],
      "payable": false,
      "stateMutability": "view",
      "type": "function"
    },
    {
      "constant": false,
      "inputs": [
        {
          "internalType": "uint256",
          "name": "inputnum",
          "type": "uint256"
        }
      ],
      "name": "create",
      "outputs": [],
      "payable": true,
      "stateMutability": "payable",
      "type": "function"
    },
    {
      "constant": false,
      "inputs": [
        {
          "internalType": "uint256",
          "name": "id",
          "type": "uint256"
        },
        {
          "internalType": "uint256",
          "name": "goal",
          "type": "uint256"
        },
        {
          "internalType": "uint256",
          "name": "ddl",
          "type": "uint256"
        }
      ],
      "name": "launch",
      "outputs": [],
      "payable": true,
      "stateMutability": "payable",
      "type": "function"
    },
    {
      "constant": false,
      "inputs": [
        {
          "internalType": "uint256",
          "name": "time",
          "type": "uint256"
        },
        {
          "internalType": "uint256",
          "name": "node",
          "type": "uint256"
        }
      ],
      "name": "bid",
      "outputs": [
        {
          "internalType": "bool",
          "name": "",
          "type": "bool"
        }
      ],
      "payable": true,
      "stateMutability": "payable",
      "type": "function"
    },
    {
      "constant": false,
      "inputs": [
        {
          "internalType": "uint256",
          "name": "node",
          "type": "uint256"
        }
      ],
      "name": "claim",
      "outputs": [],
      "payable": true,
      "stateMutability": "payable",
      "type": "function"
    }
  ],
  "bytecode": "0x608060405234801561001057600080fd5b50600c6000819055506000600181905550611762806100306000396000f3fe6080604052600436106101095760003560e01c806390eecf8a11610095578063cbb834ce11610064578063cbb834ce14610635578063cbce1a6c14610684578063da5c420714610709578063e8ffea4814610734578063ee9bfc8c146107a357610109565b806390eecf8a146104db5780639fa25e6614610540578063a59b48e6146105a5578063bb7e3f36146105d057610109565b8063379607f5116100dc578063379607f514610311578063598647f81461033f578063780900dc1461038f5780637acc0b20146103bd5780638736c1791461049957610109565b80631d698cc71461010e5780632125ac6a1461017d578063265aa621146101e2578063311ef4f914610297575b600080fd5b34801561011a57600080fd5b506101676004803603604081101561013157600080fd5b81019080803573ffffffffffffffffffffffffffffffffffffffff16906020019092919080359060200190929190505050610878565b6040518082815260200191505060405180910390f35b34801561018957600080fd5b506101cc600480360360208110156101a057600080fd5b81019080803573ffffffffffffffffffffffffffffffffffffffff1690602001909291905050506108a6565b6040518082815260200191505060405180910390f35b3480156101ee57600080fd5b5061021b6004803603602081101561020557600080fd5b81019080803590602001909291905050506108be565b604051808473ffffffffffffffffffffffffffffffffffffffff1673ffffffffffffffffffffffffffffffffffffffff1681526020018373ffffffffffffffffffffffffffffffffffffffff1673ffffffffffffffffffffffffffffffffffffffff168152602001828152602001935050505060405180910390f35b3480156102a357600080fd5b506102f0600480360360408110156102ba57600080fd5b81019080803573ffffffffffffffffffffffffffffffffffffffff16906020019092919080359060200190929190505050610928565b60405180838152602001821515151581526020019250505060405180910390f35b61033d6004803603602081101561032757600080fd5b8101908080359060200190929190505050610973565b005b6103756004803603604081101561035557600080fd5b810190808035906020019092919080359060200190929190505050610b67565b604051808215151515815260200191505060405180910390f35b6103bb600480360360208110156103a557600080fd5b8101908080359060200190929190505050610e85565b005b3480156103c957600080fd5b506103f6600480360360208110156103e057600080fd5b81019080803590602001909291905050506112a6565b604051808973ffffffffffffffffffffffffffffffffffffffff1673ffffffffffffffffffffffffffffffffffffffff1681526020018881526020018781526020018681526020018581526020018473ffffffffffffffffffffffffffffffffffffffff1673ffffffffffffffffffffffffffffffffffffffff168152602001838152602001821515151581526020019850505050505050505060405180910390f35b6104d9600480360360608110156104af57600080fd5b8101908080359060200190929190803590602001909291908035906020019092919050505061133b565b005b3480156104e757600080fd5b5061052a600480360360208110156104fe57600080fd5b81019080803573ffffffffffffffffffffffffffffffffffffffff16906020019092919050505061155b565b6040518082815260200191505060405180910390f35b34801561054c57600080fd5b5061058f6004803603602081101561056357600080fd5b81019080803573ffffffffffffffffffffffffffffffffffffffff169060200190929190505050611573565b6040518082815260200191505060405180910390f35b3480156105b157600080fd5b506105ba61158b565b6040518082815260200191505060405180910390f35b3480156105dc57600080fd5b5061061f600480360360208110156105f357600080fd5b81019080803573ffffffffffffffffffffffffffffffffffffffff169060200190929190505050611591565b6040518082815260200191505060405180910390f35b34801561064157600080fd5b5061066e6004803603602081101561065857600080fd5b81019080803590602001909291905050506115a9565b6040518082815260200191505060405180910390f35b34801561069057600080fd5b506106c7600480360360408110156106a757600080fd5b8101908080359060200190929190803590602001909291905050506115c1565b604051808273ffffffffffffffffffffffffffffffffffffffff1673ffffffffffffffffffffffffffffffffffffffff16815260200191505060405180910390f35b34801561071557600080fd5b5061071e61160c565b6040518082815260200191505060405180910390f35b34801561074057600080fd5b5061078d6004803603604081101561075757600080fd5b81019080803573ffffffffffffffffffffffffffffffffffffffff16906020019092919080359060200190929190505050611612565b6040518082815260200191505060405180910390f35b3480156107af57600080fd5b506107fc600480360360408110156107c657600080fd5b81019080803573ffffffffffffffffffffffffffffffffffffffff16906020019092919080359060200190929190505050611640565b604051808473ffffffffffffffffffffffffffffffffffffffff1673ffffffffffffffffffffffffffffffffffffffff1681526020018373ffffffffffffffffffffffffffffffffffffffff1673ffffffffffffffffffffffffffffffffffffffff168152602001828152602001935050505060405180910390f35b6003602052816000526040600020818154811061089157fe5b90600052602060002001600091509150505481565b600d6020528060005260406000206000915090505481565b600b6020528060005260406000206000915090508060000160009054906101000a900473ffffffffffffffffffffffffffffffffffffffff16908060010160009054906101000a900473ffffffffffffffffffffffffffffffffffffffff16908060020154905083565b600c602052816000526040600020818154811061094157fe5b9060005260206000209060020201600091509150508060000154908060010160009054906101000a900460ff16905082565b6000600a600083815260200190815260200160002090508060050160009054906101000a900473ffffffffffffffffffffffffffffffffffffffff1673ffffffffffffffffffffffffffffffffffffffff163373ffffffffffffffffffffffffffffffffffffffff16146109e657600080fd5b33600b60008360010154815260200190815260200160002060010160006101000a81548173ffffffffffffffffffffffffffffffffffffffff021916908373ffffffffffffffffffffffffffffffffffffffff160217905550670de0b6b3a7640000816004015402600e819055508060000160009054906101000a900473ffffffffffffffffffffffffffffffffffffffff1673ffffffffffffffffffffffffffffffffffffffff166108fc600e549081150290604051600060405180830381858888f19350505050158015610ac0573d6000803e3d6000fd5b5060096000826001015481526020019081526020016000206000815480929190600101919050555060086000826001015481526020019081526020016000203390806001815401808255809150509060018203906000526020600020016000909192909190916101000a81548173ffffffffffffffffffffffffffffffffffffffff021916908373ffffffffffffffffffffffffffffffffffffffff160217905550505050565b600080600a6000848152602001908152602001600020905080600201548410610b8f57600080fd5b80600401548160080160003373ffffffffffffffffffffffffffffffffffffffff1673ffffffffffffffffffffffffffffffffffffffff16815260200190815260200160002054670de0b6b3a76400006001340281610bea57fe5b040111610bf657600080fd5b80600301548160080160003373ffffffffffffffffffffffffffffffffffffffff1673ffffffffffffffffffffffffffffffffffffffff16815260200190815260200160002054670de0b6b3a76400006001340281610c5157fe5b04011015610c5e57600080fd5b60008160080160003373ffffffffffffffffffffffffffffffffffffffff1673ffffffffffffffffffffffffffffffffffffffff168152602001908152602001600020541415610d6557600560003373ffffffffffffffffffffffffffffffffffffffff1673ffffffffffffffffffffffffffffffffffffffff168152602001908152602001600020839080600181540180825580915050906001820390600052602060002001600090919290919091505550600460003373ffffffffffffffffffffffffffffffffffffffff1673ffffffffffffffffffffffffffffffffffffffff16815260200190815260200160002060008154809291906001019190505550610d66565b5b338160050160006101000a81548173ffffffffffffffffffffffffffffffffffffffff021916908373ffffffffffffffffffffffffffffffffffffffff160217905550670de0b6b3a76400006001340281610dbd57fe5b048160080160003373ffffffffffffffffffffffffffffffffffffffff1673ffffffffffffffffffffffffffffffffffffffff168152602001908152602001600020600082825401925050819055508060080160008260050160009054906101000a900473ffffffffffffffffffffffffffffffffffffffff1673ffffffffffffffffffffffffffffffffffffffff1673ffffffffffffffffffffffffffffffffffffffff168152602001908152602001600020548160040181905550600191505092915050565b6000808154809291906001019190505550610e9e6116c4565b60405180606001604052803373ffffffffffffffffffffffffffffffffffffffff1681526020013373ffffffffffffffffffffffffffffffffffffffff168152602001600054815250905080600b60008360400151815260200190815260200160002060008201518160000160006101000a81548173ffffffffffffffffffffffffffffffffffffffff021916908373ffffffffffffffffffffffffffffffffffffffff16021790555060208201518160010160006101000a81548173ffffffffffffffffffffffffffffffffffffffff021916908373ffffffffffffffffffffffffffffffffffffffff16021790555060408201518160020155905050600660003373ffffffffffffffffffffffffffffffffffffffff1673ffffffffffffffffffffffffffffffffffffffff168152602001908152602001600020819080600181540180825580915050906001820390600052602060002090600302016000909192909190915060008201518160000160006101000a81548173ffffffffffffffffffffffffffffffffffffffff021916908373ffffffffffffffffffffffffffffffffffffffff16021790555060208201518160010160006101000a81548173ffffffffffffffffffffffffffffffffffffffff021916908373ffffffffffffffffffffffffffffffffffffffff16021790555060408201518160020155505050600760003373ffffffffffffffffffffffffffffffffffffffff1673ffffffffffffffffffffffffffffffffffffffff168152602001908152602001600020600081548092919060019003919050555060086000826040015181526020019081526020016000203390806001815401808255809150509060018203906000526020600020016000909192909190916101000a81548173ffffffffffffffffffffffffffffffffffffffff021916908373ffffffffffffffffffffffffffffffffffffffff16021790555050611175611711565b604051806040016040528083604001518152602001600115158152509050600c60003373ffffffffffffffffffffffffffffffffffffffff1673ffffffffffffffffffffffffffffffffffffffff16815260200190815260200160002081908060018154018082558091505090600182039060005260206000209060020201600090919290919091506000820151816000015560208201518160010160006101000a81548160ff021916908315150217905550505050600d60003373ffffffffffffffffffffffffffffffffffffffff1673ffffffffffffffffffffffffffffffffffffffff16815260200190815260200160002060008154809291906001019190505550600960008360400151815260200190815260200160002060008154809291906001019190505550505050565b600a6020528060005260406000206000915090508060000160009054906101000a900473ffffffffffffffffffffffffffffffffffffffff16908060010154908060020154908060030154908060040154908060050160009054906101000a900473ffffffffffffffffffffffffffffffffffffffff16908060060154908060070160009054906101000a900460ff16905088565b3373ffffffffffffffffffffffffffffffffffffffff16600b600085815260200190815260200160002060010160009054906101000a900473ffffffffffffffffffffffffffffffffffffffff1673ffffffffffffffffffffffffffffffffffffffff16146113a957600080fd5b6000600a600060015481526020019081526020016000209050338160000160006101000a81548173ffffffffffffffffffffffffffffffffffffffff021916908373ffffffffffffffffffffffffffffffffffffffff1602179055508281600301819055508181600201819055506000816004018190555060008160070160006101000a81548160ff0219169083151502179055506001548160060181905550838160010181905550600360003373ffffffffffffffffffffffffffffffffffffffff1673ffffffffffffffffffffffffffffffffffffffff1681526020019081526020016000206001549080600181540180825580915050906001820390600052602060002001600090919290919091505550600360003373ffffffffffffffffffffffffffffffffffffffff1673ffffffffffffffffffffffffffffffffffffffff16815260200190815260200160002080549050600260003373ffffffffffffffffffffffffffffffffffffffff1673ffffffffffffffffffffffffffffffffffffffff1681526020019081526020016000208190555060016000815480929190600101919050555050505050565b60076020528060005260406000206000915090505481565b60046020528060005260406000206000915090505481565b60005481565b60026020528060005260406000206000915090505481565b60096020528060005260406000206000915090505481565b600860205281600052604060002081815481106115da57fe5b906000526020600020016000915091509054906101000a900473ffffffffffffffffffffffffffffffffffffffff1681565b60015481565b6005602052816000526040600020818154811061162b57fe5b90600052602060002001600091509150505481565b6006602052816000526040600020818154811061165957fe5b9060005260206000209060030201600091509150508060000160009054906101000a900473ffffffffffffffffffffffffffffffffffffffff16908060010160009054906101000a900473ffffffffffffffffffffffffffffffffffffffff16908060020154905083565b6040518060600160405280600073ffffffffffffffffffffffffffffffffffffffff168152602001600073ffffffffffffffffffffffffffffffffffffffff168152602001600081525090565b604051806040016040528060008152602001600015158152509056fea265627a7a72315820409651b82130c099f12347e657d2fe487348aa9fcb1612d85d4a9b7b82ce36eb64736f6c63430005100032",
  "source": "pragma solidity >=0.5.16;\n\ncontract auction{\n    struct auction_item {\n        address payable launcher;\n        uint256  unique_id;\n        uint  ddl;\n        uint  bottom;\n        uint  highest_now;\n        address  highest_bidder;\n        uint  node;\n        bool finished;\n        mapping(address => uint)  bidds;\n    }\n    struct nft_item{\n        address  creator;\n        address  owner;\n        uint256  unique_id;\n    }\n    struct if_create{\n        uint256 unique_id;\n        bool if_;\n    }\n    uint public maxn;\n    uint public productsNum;\n    \n    constructor() public {\n        maxn = 12;\n        productsNum = 0;\n\t}\n    mapping(address => uint) public userLaunchsLen;\n    mapping(address => uint[]) public userLaunchs;\n    mapping(address => uint) public userbidsLen;\n    mapping(address => uint[]) public userbids;\n    mapping(address => nft_item[]) public ownership;\n    mapping(address => uint) public ownlen;\n    mapping(uint256 => address[]) public former_owners;\n    mapping(uint256 => uint) public formerown_len;\n    mapping(uint => auction_item) public products;\n    mapping(uint256 => nft_item) public nfts;\n    mapping(address => if_create[]) public if_creator;\n    mapping(address => uint) public if_creatorlen;\n    uint256  amount;\n\n    function create(uint inputnum)public payable {\n        maxn++;\n        nft_item memory new_nft = nft_item(msg.sender,msg.sender,maxn) ;\n        nfts[new_nft.unique_id] = new_nft;\n        ownership[msg.sender].push(new_nft);\n        ownlen[msg.sender]--;\n        former_owners[new_nft.unique_id].push(msg.sender);\n        if_create memory nif = if_create(new_nft.unique_id,true);\n        if_creator[msg.sender].push(nif);\n        if_creatorlen[msg.sender]++;\n        formerown_len[new_nft.unique_id]++;\n    }\n\n    function launch(uint256 id, uint goal, uint ddl) public payable {\n        require(nfts[id].owner == msg.sender);\n        auction_item storage p = products[productsNum];\n        p.launcher = msg.sender;\n        p.bottom = goal;\n        p.ddl = ddl;\n        p.highest_now = 0;\n        p.finished = false;\n        p.node = productsNum;\n        p.unique_id = id;\n        userLaunchs[msg.sender].push(productsNum);\n        userLaunchsLen[msg.sender] = userLaunchs[msg.sender].length;\n        productsNum++;\n    }\n\n    function bid(uint time,uint node) public payable returns(bool) {\n        auction_item storage p = products[node];\n        require(time<p.ddl);\n        require((msg.value *1 wei/1 ether) + p.bidds[msg.sender] > p.highest_now);\n        require((msg.value *1 wei/1 ether) + p.bidds[msg.sender] >= p.bottom);\n        if(p.bidds[msg.sender] == 0){\n            userbids[msg.sender].push(node);\n            userbidsLen[msg.sender]++;\n        }\n        else{}\n        p.highest_bidder = msg.sender; \n        p.bidds[msg.sender] += msg.value *1 wei/1 ether;\n        p.highest_now = p.bidds[p.highest_bidder];\n        return true;\n    }\n\n    function claim(uint node)public payable {\n        auction_item storage p = products[node];\n        require(msg.sender == p.highest_bidder);\n        nfts[p.unique_id].owner = msg.sender;\n        amount = p.highest_now * 1 ether;\n        p.launcher.transfer(amount) ;\n        formerown_len[p.unique_id]++;\n        former_owners[p.unique_id].push(msg.sender);\n    }\n}",
  "sourcePath": "C:\\Users\\Lenovo\\bighw\\backend\\contracts\\auction.sol",
  "compiler": {
    "name": "solc",
    "version": "0.5.16+commit.9c3226ce.Emscripten.clang"
  },
  "schemaVersion": "3.4.3",
  "updatedAt": "2021-11-05T11:04:32.129Z",
  "networkType": "ethereum",
  "devdoc": {
    "methods": {}
  },
  "userdoc": {
    "methods": {}
  }
}